{
  "contractName": "TestToken",
  "abi": [
    {
      "constant": true,
      "inputs": [],
      "name": "name",
      "outputs": [
        {
          "name": "",
          "type": "string"
        }
      ],
      "payable": false,
      "stateMutability": "view",
      "type": "function"
    },
    {
      "constant": true,
      "inputs": [],
      "name": "totalSupply",
      "outputs": [
        {
          "name": "",
          "type": "uint256"
        }
      ],
      "payable": false,
      "stateMutability": "view",
      "type": "function"
    },
    {
      "constant": true,
      "inputs": [],
      "name": "decimals",
      "outputs": [
        {
          "name": "",
          "type": "uint8"
        }
      ],
      "payable": false,
      "stateMutability": "view",
      "type": "function"
    },
    {
      "constant": true,
      "inputs": [],
      "name": "symbol",
      "outputs": [
        {
          "name": "",
          "type": "string"
        }
      ],
      "payable": false,
      "stateMutability": "view",
      "type": "function"
    },
    {
      "anonymous": false,
      "inputs": [
        {
          "indexed": true,
          "name": "from",
          "type": "address"
        },
        {
          "indexed": true,
          "name": "to",
          "type": "address"
        },
        {
          "indexed": false,
          "name": "value",
          "type": "uint256"
        }
      ],
      "name": "Transfer",
      "type": "event"
    },
    {
      "anonymous": false,
      "inputs": [
        {
          "indexed": true,
          "name": "owner",
          "type": "address"
        },
        {
          "indexed": true,
          "name": "spender",
          "type": "address"
        },
        {
          "indexed": false,
          "name": "value",
          "type": "uint256"
        }
      ],
      "name": "Approval",
      "type": "event"
    },
    {
      "constant": false,
      "inputs": [
        {
          "name": "_to",
          "type": "address"
        },
        {
          "name": "_value",
          "type": "uint256"
        }
      ],
      "name": "issueTokens",
      "outputs": [],
      "payable": false,
      "stateMutability": "nonpayable",
      "type": "function"
    },
    {
      "constant": false,
      "inputs": [
        {
          "name": "_to",
          "type": "address"
        },
        {
          "name": "_value",
          "type": "uint256"
        }
      ],
      "name": "transfer",
      "outputs": [
        {
          "name": "success",
          "type": "bool"
        }
      ],
      "payable": false,
      "stateMutability": "nonpayable",
      "type": "function"
    },
    {
      "constant": false,
      "inputs": [
        {
          "name": "_from",
          "type": "address"
        },
        {
          "name": "_to",
          "type": "address"
        },
        {
          "name": "_value",
          "type": "uint256"
        }
      ],
      "name": "transferFrom",
      "outputs": [
        {
          "name": "success",
          "type": "bool"
        }
      ],
      "payable": false,
      "stateMutability": "nonpayable",
      "type": "function"
    },
    {
      "constant": false,
      "inputs": [
        {
          "name": "_spender",
          "type": "address"
        },
        {
          "name": "_value",
          "type": "uint256"
        }
      ],
      "name": "approve",
      "outputs": [
        {
          "name": "success",
          "type": "bool"
        }
      ],
      "payable": false,
      "stateMutability": "nonpayable",
      "type": "function"
    },
    {
      "constant": true,
      "inputs": [
        {
          "name": "_owner",
          "type": "address"
        },
        {
          "name": "_spender",
          "type": "address"
        }
      ],
      "name": "allowance",
      "outputs": [
        {
          "name": "remaining",
          "type": "uint256"
        }
      ],
      "payable": false,
      "stateMutability": "view",
      "type": "function"
    },
    {
      "constant": true,
      "inputs": [
        {
          "name": "_owner",
          "type": "address"
        }
      ],
      "name": "balanceOf",
      "outputs": [
        {
          "name": "balance",
          "type": "uint256"
        }
      ],
      "payable": false,
      "stateMutability": "view",
      "type": "function"
    }
  ],
  "bytecode": "0x608060405234801561001057600080fd5b50610b30806100206000396000f3006080604052600436106100a4576000357c0100000000000000000000000000000000000000000000000000000000900463ffffffff16806306fdde03146100a9578063095ea7b31461013957806318160ddd1461019e57806323b872dd146101c9578063313ce5671461024e578063475a9fa91461027f57806370a08231146102cc57806395d89b4114610323578063a9059cbb146103b3578063dd62ed3e14610418575b600080fd5b3480156100b557600080fd5b506100be61048f565b6040518080602001828103825283818151815260200191508051906020019080838360005b838110156100fe5780820151818401526020810190506100e3565b50505050905090810190601f16801561012b5780820380516001836020036101000a031916815260200191505b509250505060405180910390f35b34801561014557600080fd5b50610184600480360381019080803573ffffffffffffffffffffffffffffffffffffffff169060200190929190803590602001909291905050506104c8565b604051808215151515815260200191505060405180910390f35b3480156101aa57600080fd5b506101b36105ba565b6040518082815260200191505060405180910390f35b3480156101d557600080fd5b50610234600480360381019080803573ffffffffffffffffffffffffffffffffffffffff169060200190929190803573ffffffffffffffffffffffffffffffffffffffff169060200190929190803590602001909291905050506105c0565b604051808215151515815260200191505060405180910390f35b34801561025a57600080fd5b50610263610829565b604051808260ff1660ff16815260200191505060405180910390f35b34801561028b57600080fd5b506102ca600480360381019080803573ffffffffffffffffffffffffffffffffffffffff1690602001909291908035906020019092919050505061082e565b005b3480156102d857600080fd5b5061030d600480360381019080803573ffffffffffffffffffffffffffffffffffffffff16906020019092919050505061088e565b6040518082815260200191505060405180910390f35b34801561032f57600080fd5b506103386108d6565b6040518080602001828103825283818151815260200191508051906020019080838360005b8381101561037857808201518184015260208101905061035d565b50505050905090810190601f1680156103a55780820380516001836020036101000a031916815260200191505b509250505060405180910390f35b3480156103bf57600080fd5b506103fe600480360381019080803573ffffffffffffffffffffffffffffffffffffffff1690602001909291908035906020019092919050505061090f565b604051808215151515815260200191505060405180910390f35b34801561042457600080fd5b50610479600480360381019080803573ffffffffffffffffffffffffffffffffffffffff169060200190929190803573ffffffffffffffffffffffffffffffffffffffff169060200190929190505050610a7d565b6040518082815260200191505060405180910390f35b6040805190810160405280600a81526020017f5465737420546f6b656e0000000000000000000000000000000000000000000081525081565b600081600160003373ffffffffffffffffffffffffffffffffffffffff1673ffffffffffffffffffffffffffffffffffffffff16815260200190815260200160002060008573ffffffffffffffffffffffffffffffffffffffff1673ffffffffffffffffffffffffffffffffffffffff168152602001908152602001600020819055508273ffffffffffffffffffffffffffffffffffffffff163373ffffffffffffffffffffffffffffffffffffffff167f8c5be1e5ebec7d5bd14f71427d1e84f3dd0314c0f7b2291e5b200ac8c7c3b925846040518082815260200191505060405180910390a36001905092915050565b60025481565b6000816000808673ffffffffffffffffffffffffffffffffffffffff1673ffffffffffffffffffffffffffffffffffffffff168152602001908152602001600020541015801561068c575081600160008673ffffffffffffffffffffffffffffffffffffffff1673ffffffffffffffffffffffffffffffffffffffff16815260200190815260200160002060003373ffffffffffffffffffffffffffffffffffffffff1673ffffffffffffffffffffffffffffffffffffffff1681526020019081526020016000205410155b151561069757600080fd5b816000808573ffffffffffffffffffffffffffffffffffffffff1673ffffffffffffffffffffffffffffffffffffffff16815260200190815260200160002060008282540192505081905550816000808673ffffffffffffffffffffffffffffffffffffffff1673ffffffffffffffffffffffffffffffffffffffff1681526020019081526020016000206000828254039250508190555081600160008673ffffffffffffffffffffffffffffffffffffffff1673ffffffffffffffffffffffffffffffffffffffff16815260200190815260200160002060003373ffffffffffffffffffffffffffffffffffffffff1673ffffffffffffffffffffffffffffffffffffffff168152602001908152602001600020600082825403925050819055508273ffffffffffffffffffffffffffffffffffffffff168473ffffffffffffffffffffffffffffffffffffffff167fddf252ad1be2c89b69c2b068fc378daa952ba7f163c4a11628f55a4df523b3ef846040518082815260200191505060405180910390a3600190509392505050565b600181565b806000808473ffffffffffffffffffffffffffffffffffffffff1673ffffffffffffffffffffffffffffffffffffffff16815260200190815260200160002060008282540192505081905550806002600082825401925050819055505050565b60008060008373ffffffffffffffffffffffffffffffffffffffff1673ffffffffffffffffffffffffffffffffffffffff168152602001908152602001600020549050919050565b6040805190810160405280600281526020017f545400000000000000000000000000000000000000000000000000000000000081525081565b6000604060048101600036905014151561092857600080fd5b826000803373ffffffffffffffffffffffffffffffffffffffff1673ffffffffffffffffffffffffffffffffffffffff168152602001908152602001600020541015151561097557600080fd5b826000803373ffffffffffffffffffffffffffffffffffffffff1673ffffffffffffffffffffffffffffffffffffffff16815260200190815260200160002060008282540392505081905550826000808673ffffffffffffffffffffffffffffffffffffffff1673ffffffffffffffffffffffffffffffffffffffff168152602001908152602001600020600082825401925050819055508373ffffffffffffffffffffffffffffffffffffffff163373ffffffffffffffffffffffffffffffffffffffff167fddf252ad1be2c89b69c2b068fc378daa952ba7f163c4a11628f55a4df523b3ef856040518082815260200191505060405180910390a3600191505092915050565b6000600160008473ffffffffffffffffffffffffffffffffffffffff1673ffffffffffffffffffffffffffffffffffffffff16815260200190815260200160002060008373ffffffffffffffffffffffffffffffffffffffff1673ffffffffffffffffffffffffffffffffffffffff168152602001908152602001600020549050929150505600a165627a7a72305820363efc6c514fddeb4e6d35162d6b172646051dfd2bb3212e44c6ef2c470c60620029",
  "source": "// from https://github.com/gnosis/MultiSigWallet/blob/master/contracts/TestToken.sol\npragma solidity ^0.4.23;\n\n\n/// @title Test token contract - Allows testing of token transfers with multisig wallet.\ncontract TestToken {\n\n    /*\n     *  Events\n     */\n    event Transfer(address indexed from, address indexed to, uint256 value);\n    event Approval(address indexed owner, address indexed spender, uint256 value);\n\n    /*\n     *  Constants\n     */\n    string constant public name = \"Test Token\";\n    string constant public symbol = \"TT\";\n    uint8 constant public decimals = 1;\n\n    /*\n     *  Storage\n     */\n    mapping (address => uint256) balances;\n    mapping (address => mapping (address => uint256)) allowed;\n    uint256 public totalSupply;\n\n    /*\n     * Public functions\n     */\n    /// @dev Issues new tokens.\n    /// @param _to Address of token receiver.\n    /// @param _value Number of tokens to issue.\n    function issueTokens(address _to, uint256 _value)\n        public\n    {\n        balances[_to] += _value;\n        totalSupply += _value;\n    }\n\n    /*\n     * This modifier is present in some real world token contracts, and due to a solidity\n     * bug it was not compatible with multisig wallets\n     */\n    modifier onlyPayloadSize(uint size) {\n        require(msg.data.length == size + 4);\n        _;\n    }\n\n    /// @dev Transfers sender's tokens to a given address. Returns success.\n    /// @param _to Address of token receiver.\n    /// @param _value Number of tokens to transfer.\n    /// @return Returns success of function call.\n    function transfer(address _to, uint256 _value) onlyPayloadSize(2 * 32)\n        public\n        returns (bool success)\n    {\n        require(balances[msg.sender] >= _value);\n        balances[msg.sender] -= _value;\n        balances[_to] += _value;\n        emit Transfer(msg.sender, _to, _value);\n        return true;\n    }\n\n    /// @dev Allows allowed third party to transfer tokens from one address to another. Returns success.\n    /// @param _from Address from where tokens are withdrawn.\n    /// @param _to Address to where tokens are sent.\n    /// @param _value Number of tokens to transfer.\n    /// @return Returns success of function call.\n    function transferFrom(address _from, address _to, uint256 _value)\n        public\n        returns (bool success)\n    {\n        require(balances[_from] >= _value && allowed[_from][msg.sender] >= _value);\n        balances[_to] += _value;\n        balances[_from] -= _value;\n        allowed[_from][msg.sender] -= _value;\n        emit Transfer(_from, _to, _value);\n        return true;\n    }\n\n    /// @dev Sets approved amount of tokens for spender. Returns success.\n    /// @param _spender Address of allowed account.\n    /// @param _value Number of approved tokens.\n    /// @return Returns success of function call.\n    function approve(address _spender, uint256 _value)\n        public\n        returns (bool success)\n    {\n        allowed[msg.sender][_spender] = _value;\n        emit Approval(msg.sender, _spender, _value);\n        return true;\n    }\n\n    /// @dev Returns number of allowed tokens for given address.\n    /// @param _owner Address of token owner.\n    /// @param _spender Address of token spender.\n    /// @return Returns remaining allowance for spender.\n    function allowance(address _owner, address _spender)\n        constant\n        public\n        returns (uint256 remaining)\n    {\n        return allowed[_owner][_spender];\n    }\n\n    /// @dev Returns number of tokens owned by given address.\n    /// @param _owner Address of token owner.\n    /// @return Returns balance of owner.\n    function balanceOf(address _owner)\n        constant\n        public\n        returns (uint256 balance)\n    {\n        return balances[_owner];\n    }\n}\n",
  "sourcePath": "/Users/jake/Documents/Development/Vidy/Git/ethereum-wallets/contracts/base/test/TestToken.sol",
  "compiler": {
    "name": "solc",
    "version": "0.4.24+commit.e67f0147.Emscripten.clang"
  },
  "schemaVersion": "2.0.1",
  "updatedAt": "2018-07-12T21:12:00.546Z"
}